:0400000027EF0DF0E9
:101000000001000A006400E803102720416E7761A8
:101010007220262041626F6F640D0A00436F756E67
:10102000746572203A2025642020200054656D707C
:1010300020416C657274212020200020416E776170
:101040007220262041626F6F64000A2062757A7AEE
:101050006572206F6E0025630000000EF26E3CEC9E
:101060000DF065EC0DF09CEC0DF096EC0BF00C0E19
:101070001DEC0CF0010E0B6E010EB6EC0CF03B0EED
:101080000F6E100E106EF2EC0BF02B0E0D6E000EAC
:101090000E6E0B0E0F6E100E106E56EC09F02B0E2E
:1010A000026E000E036EC7EC0BF0130E026E880E7C
:1010B000016E51EC0DF00C0E1DEC0CF0000E756E77
:1010C000000E746E000E6C6E000E6B6E000E776E6E
:1010D000000E766E020E0B6E010EB6EC0CF03B0E9F
:1010E0000F6E100E106EF2EC0BF081BE0AD0000EE7
:1010F000026E640E016E51EC0DF0000E756E000E66
:10110000746E80A604D0000E736E310E03D0000EF4
:10111000736E300E726E72C079F0000ED7EC0CF068
:1011200001C070F002C071F0C00E106E7F0E116E23
:10113000440E126E70C009F071C00AF0F4EC0CF0AD
:1011400009C00DF00AC00EF00BC00FF084EC0AF0DD
:101150000DC01CF00EC01DF00FC01EF0000E1F6E63
:10116000FA0E206E430E216E0AEC0AF01CC06DF0E0
:101170001DC06EF01EC06FF0000E016E340E026EC8
:10118000420E036E6DC004F06EC005F06FC006F035
:101190004EEC0BF0D8B017D083802B0E0D6E000EE6
:1011A0000E6E2C0E0F6E100E106E56EC09F0010E26
:1011B0000B6E010EB6EC0CF02B0E0F6E000E106EC7
:1011C000F2EC0BF03AD079C06BF06C6A76047710D1
:1011D000D8A407D0310E7918D8A403D0744A752A40
:1011E00007D0300E7918D8A402D0838001D0839024
:1011F000300E7918D8A404D0000E776E010E03D0FB
:10120000000E776E000E766E2B0E0D6E000E0E6EBB
:101210001C0E0F6E100E106E74C011F075C012F01F
:1012200056EC09F0010E0B6E010EB6EC0CF02B0E15
:101230000F6E000E106EF2EC0BF088EC0DF0000952
:10124000D8B42DD0A2EC0DF0786E2B0E0D6E000EE2
:101250000E6E560E0F6E100E106E78C011F0126AE0
:1012600056EC09F0010E0B6E0E0EB6EC0CF02B0EC8
:101270000F6E000E106EF2EC0BF0620E7818D8A410
:101280000DD08380130E026E880E016E51EC0DF0AE
:101290004A0E026E100E036EC7EC0BF08390000E28
:1012A000026E640E016E51EC0DF014D7110E166E25
:1012B000000E176E9CD0250E1A18D8B404D010D08A
:1012C0000D4A0E2A94D0000E146E11D016C0D9FF0C
:1012D00017C0DAFFDF501A6E020E1626000E172214
:1012E0000DC0D9FF0EC0DAFF1AC0DFFFE9D70FC06B
:1012F000F6FF10C0F7FF0F4A102A0800F5CF1AF0CA
:101300001A50000AD8B47FD0630AD8B4DFD7070ACE
:10131000D8B403D00D0AD8A4E3D716C0D9FF17C09C
:10132000DAFFDECF18F0DDCF19F0020E1626000E20
:10133000172219AE06D0030E1412186C191ED8B05D
:10134000192A010E1A6E050E1A18D8B412D01A50A6
:10135000020D010EF324F66E100EF420F76E090054
:10136000F550185C0900F5501958D8A002D01A2A77
:10137000EAD714C013F0030E1316D8B408D00DC06A
:10138000D9FF0EC0DAFF2D0EDF6E0D4A0E2A1AC0ED
:1013900015F029D01550020D010EF324F66E100E33
:1013A000F420F76E0900F5CF03F00A00F5CF04F042
:1013B00018C001F019C002F048EC0CF001C008F0B0
:1013C00002C009F0000E0B6E0A0E0A6E95EC0CF0CE
:1013D0000850300F1A6E0DC0D9FF0EC0DAFF1AC0C8
:1013E000DFFF0D4A0E2A15061528D8A4D3D70FC043
:1013F000F6FF10C0F7FF0F4A102A0800F5CF1AF0C9
:101400001A50D8A458D70DC0D9FF0EC0DAFF000E6D
:10141000DF6E12001EC022F0236A246A1D342236B9
:1014200001E323802250256E2550D8A407D0000E5A
:101430001C6E000E1D6E000E1E6E120021C022F0EA
:10144000236A246A2034223601E3238022502A6E44
:101450002A50D8A407D0000E1C6E000E1D6E000E80
:101460001E6E12002A507B0F25261EC02AF0215026
:101470002A1A800E2A161D8E208EFF0E1F16FF0EB2
:101480002016000E2116000E266E000E276E000E8E
:10149000286E070E296E1CA006D01F50262620504D
:1014A000272221502822D8901E321D321C32D8907B
:1014B0001F3620362136292EEED7090E296E1CA0A4
:1014C00006D01F5026262050272221502822D890AF
:1014D0001E321D321C32D890283227322632292E55
:1014E000EED726C001F027C002F028C003F025C0C7
:1014F00004F02AC005F0F7EC0AF001C01CF002C0AD
:101500001DF003C01EF012000FC013F0146A156A1C
:101510000E34133601E3148013501A6E1A50D8A4F7
:1015200007D0000E0D6E000E0E6E000E0F6E120034
:1015300012C013F0146A156A1134133601E31480D3
:1015400013501B6E1B50D8A407D0000E0D6E000E5A
:101550000E6E000E0F6E1200000E176E000E186E4B
:10156000000E196E1B50890F1A5E0FC01BF012502F
:101570001B1A800E1B160E8EFF0E0D16FF0E0E167A
:10158000000E0F16118EFF0E1016FF0E1116000E14
:101590001216180E166ED8901736183619361050C7
:1015A0000D5C11500E5812500F58D8A007D0105093
:1015B0000D5E11500E5A12500F5A1780D8900D36EA
:1015C0000E360F36162EE7D717C001F018C002F0FE
:1015D00019C003F01AC004F01BC005F0F7EC0AF0C4
:1015E00001C00DF002C00EF003C00FF01200045055
:1015F000D8B405D0015002100310D8A40CD0000EAE
:10160000016E000E026E000E036E1200042AD890C6
:10161000033202320132000E0114066E000E021473
:10162000076EFE0E0314086E065007100810D8B49B
:101630000CD0ECD7042A010E0126000E0222000E67
:101640000322D890033202320132000E0114066EDA
:10165000000E0214076EFF0E0314086E06500710EA
:101660000810D8B406D0E6D70406D8900136023662
:10167000033602BE03D0020E0460F6D704A0029E19
:10168000D8900432045003120550D8A4038E01C030
:1016900001F002C002F003C003F0120003AE16D046
:1016A00001C007F002C008F003C009F0071E081EC1
:1016B000091E072A000E08220922000E0724016EC7
:1016C000000E0820026E800E0920036E06AE16D0B2
:1016D00004C007F005C008F006C009F0071E081E88
:1016E000091E072A000E08220922000E0724046E94
:1016F000000E0820056E800E0920066E000E011AED
:10170000000E021A800E031A000E041A000E051AAB
:10171000800E061A0450015C05500258065003580A
:10172000D8B002D0D8901200D8801200839283964D
:10173000000E026E190E016E51EC0DF0010E0B6ED3
:10174000030E0B6401D00BD0030E77EC0DF0000EEE
:10175000026E060E016E51EC0DF00B2AF1D7020E4F
:1017600077EC0DF0000E0B6E030E0B6401D012002F
:101770000B50010D7A0EF324D96E000EF420DA6EB0
:10178000DF50096E000E71EC0CF00B2AEDD715D06E
:1017900002C0F6FF03C0F7FF000EF86E0F0EF764ED
:1017A00003D00800F55005D0F6CFE9FFF7CFEAFFE8
:1017B000EF5094EC0DF0024A032A02C0F6FF03C07A
:1017C000F7FF000EF86E0F0EF76403D00800F55017
:1017D00005D0F6CFE9FFF7CFEAFFEF500009D8B404
:1017E0001200D6D715D00FC0F6FF10C0F7FF000EBD
:1017F000F86E0F0EF76403D00800F55005D0F6CF51
:10180000E9FFF7CFEAFFEF501DEC0CF00F4A102A6A
:101810000FC0F6FF10C0F7FF000EF86E0F0EF76452
:1018200003D00800F55005D0F6CFE9FFF7CFEAFF67
:10183000EF500009D8B41200D6D70E6E1ED0010E9C
:10184000096E000E71EC0CF0000E026E020E016EBD
:1018500051EC0DF01200020E0B6E010EB6EC0CF006
:101860001200100E096E000E71EC0CF012000EC08A
:1018700009F0010E71EC0CF012000E50080AD8B4F9
:10188000F0D7020AD8B4E7D7060AD8B4D8D7EFD72A
:10189000000E066E000E056E03500410D8B41CD066
:1018A000010E076E04D0D89003360436072A04AE22
:1018B000FAD7D890053606360350015C045002581A
:1018C000D8A005D00350015E0450025A0580D8907C
:1018D00004320332072EEDD705C001F006C002F036
:1018E00012000A6E0AB002D0839201D08382010EE8
:1018F00010EC0DF0010E10EC0DF0839609380F0B73
:1019000077EC0DF009500F0B77EC0DF00A50D8B4BE
:1019100005D0320E0400E82EFDD71200000E026E34
:10192000020E016E51EC0DF012000A500B10D8B4EB
:1019300018D0010E0C6E04D0D8900A360B360C2A43
:101940000BAEFAD70A50085C0B500958D8A004D047
:101950000A50085E0B50095AD8900B320A320C2EEE
:10196000F1D708C008F009C009F012000C6E09D0C8
:10197000800E05D0C00E03D0900E01D0D00E0D6E9B
:101980000DD00B50010AD8B4F3D7030AD8B4F2D75C
:10199000010AD8B4F1D7070AD8B4F0D70C040D2641
:1019A0000D508009096E000E71EC0CF01200076EEC
:1019B00007C003F003460346C2500318C30B0318C5
:1019C000C26EC282C2B2FED7C350C4CF03F0046A53
:1019D00003C004F0036A0310056E0450066E05C0D0
:1019E00001F006C002F01200000E0C6E0AAE06D026
:1019F000096C0A1ED8B00A2A010E0C6E09C001F04B
:101A00000AC002F0036A8E0E046E0CC005F0F7ECFB
:101A10000AF001C009F002C00AF003C00BF0120086
:101A2000046E000E066E000E056E03D00400054A1B
:101A3000062A0450016E026A0550015C0250800AB9
:101A4000036E0650800A0358D8A01200EFD74C0E40
:101A5000F66E1B0EF76E000EF86E00EE7AF010EECA
:101A600004F00900F5CFEEFFE550E150FAE1000E79
:101A7000F86E00012DEF08F00D0EC16E000E8D6E98
:101A80008DCF8CFF8CCF8BFF8BCF8AFF8ACF89FFC6
:101A900092689368000E966E96CF95FF800E946EB6
:101AA0001200000E046E000E036E08D0C80E040073
:101AB0000400E82EFCD70400034A042A0150035C0A
:101AC00002500458D8B01200F1D7B896000EAC6E90
:101AD000190EAF6E000EB06EAC84AC8A000EAB6E09
:101AE000AB88AB8EAECF01F0AECF01F01200086E26
:101AF00008C007F0073A835007180F0B0718836ECA
:101B0000010E10EC0DF08386040000F083961200A5
:101B1000ABB402D0ABA202D0AB98AB889EAA02D0E5
:101B2000010E1200000E1200016E01D00400ACA2E2
:101B3000FDD701C0ADFF1200000EC26EC280890E3B
:101B4000C06E1200AECF01F001501200280C010649
:020000040020DA
:08000000FFFFFFFFFFFFFFFF00
:020000040030CA
:0E000000FF011F1FFF8385FF0FC00FE00F40A1
:00000001FF
